:100000000C949D010C94BC010C94BC010C94BC019B
:100010000C94BC010C94BC010C94BC010C94BC016C
:100020000C94BC010C94BC010C94BC010C94BC015C
:100030000C94BC010C94BC010C94BC010C942A0AD5
:100040000C9464090C94601C0C945F070C94BC0124
:100050000C94DB070C94B6100C94BC010C94BC01FE
:100060000C94BC010C9431090C9410090C941B09DC
:100070000C9426090C9444090C94F3080C94BC01CC
:100080000C9405090C94BC010C94BC0128120013BB
:10009000311433143B1460141512A514B314C11495
:1000A000C71406155415D015F31558197819821967
:1000B000B5191E122D1A0000211042206330844011
:1000C000A550C660E770088129914AA16BB18CC127
:1000D000ADD1CEE1EFF13112100273325222B5529E
:1000E0009442F772D662399318837BB35AA3BDD377
:1000F0009CC3FFF3DEE36224433420040114E6646E
:10010000C774A44485546AA54BB528850995EEE5C6
:10011000CFF5ACC58DD55336722611163006D7767D
:10012000F6669556B4465BB77AA719973887DFF716
:10013000FEE79DD7BCC7C448E5588668A778400845
:10014000611802282338CCC9EDD98EE9AFF9488966
:1001500069990AA92BB9F55AD44AB77A966A711ADD
:10016000500A333A122AFDDBDCCBBFFB9EEB799BB6
:10017000588B3BBB1AABA66C877CE44CC55C222C2D
:10018000033C600C411CAEED8FFDECCDCDDD2AAD06
:100190000BBD688D499D977EB66ED55EF44E133EBD
:1001A000322E511E700E9FFFBEEFDDDFFCCF1BBF56
:1001B0003AAF599F788F8891A981CAB1EBA10CD130
:1001C0002DC14EF16FE18010A100C230E320045038
:1001D000254046706760B9839893FBA3DAB33DC3AB
:1001E0001CD37FE35EF3B1029012F322D232354288
:1001F000145277625672EAB5CBA5A89589856EF53B
:100200004FE52CD50DC5E234C324A01481046674D7
:10021000476424540544DBA7FAB79987B8975FE78A
:100220007EF71DC73CD7D326F2369106B016576627
:100230007676154634564CD96DC90EF92FE9C89912
:10024000E9898AB9ABA94458654806782768C01877
:10025000E1088238A3287DCB5CDB3FEB1EFBF98BEA
:10026000D89BBBAB9ABB754A545A376A167AF10AC7
:10027000D01AB32A923A2EFD0FED6CDD4DCDAABDFA
:100280008BADE89DC98D267C076C645C454CA23C17
:10029000832CE01CC10C1FEF3EFF5DCF7CDF9BAFCA
:1002A000BABFD98FF89F176E367E554E745E932E67
:1002B000B23ED10EF01E00081C181410ABBA83AA6F
:1002C000AA3158000057F685035544020F60E02616
:1002D0001C6B557081317C00007BF9AE02388C328A
:1002E00080401026A16B5510F33151000050F74F9C
:1002F000030E44020F58E026A16B557081315CE07B
:10030000005CDB4201AA8C3280301026A16B5510B4
:10031000F3314560004555BB039C80020F68E02621
:10032000A16B5470813158000057F6850355900237
:100330000F60E026A16B5570810011241FBECFEF26
:10034000D0E1DEBFCDBF12E0A0E0B1E0EAE9F8E421
:1003500000E00BBF02C007900D92A43CB107D9F793
:1003600019E0A4ECB2E001C01D92A739B107E1F792
:100370000E94681A0C944C240C9400008FB7F894D7
:10038000992708958FBF0895E6EBF0E06927660F7F
:10039000F11DE60FF11DC895982F802D3196C89557
:1003A00090250895880F949890E087FF02C0979A4F
:1003B00001C097989698969A9F5F973011F0880F92
:1003C000F4CF979A9698969A949A80E067FF02C025
:1003D000979A01C097989698969A8F5F883011F0F7
:1003E000660FF4CF949A979A969A08956091920422
:1003F00089E00E94D20160E08BE00E94D20161E1BD
:1004000080E00E94D2018DE790E00197019601976C
:10041000E1F70895282F9FB7F894E82FFF27E35BB3
:10042000F64F80818F3F81F4E0916409E21771F407
:100430000BC020934C0904C0FF27E35BF64F2083D9
:100440002093640920E007C025E005C080914C0995
:100450008F3F91F7EECF892F99278FBF822F992752
:1004600008952F923F924F925F926F927F928F9258
:100470009F92AF92BF92CF92DF92EF92FF920F9333
:100480001F93CF93DF93CDB7DEB729970FB6F894BC
:10049000DEBF0FBECDBF6FB76983F894209079049B
:1004A00030907A0440907B0450907C04662477243A
:1004B00088242EE4A22E93E8B92ECC24DD24EE2449
:1004C000FF2400E010E0222D332D442D552D662D04
:1004D000772D882D90E00E94311F2A833B834C8327
:1004E0005D836E837F8388879987822E932EA42EC7
:1004F000B52E2401350100E20E942F20A22EB32E3A
:10050000C42ED52EA3019201569547953795279570
:100510002A0D3B1D4C1D5D1D57FF05C05F772F5FEA
:100520003F4F4F4F5F4F2093790430937A044093AD
:100530007B0450937C04E9818E2F99278FBFCA01D9
:10054000B90129960FB6F894DEBF0FBECDBFDF917B
:10055000CF911F910F91FF90EF90DF90CF90BF90C0
:10056000AF909F908F907F906F905F904F903F9053
:100570002F9008958091B1028230A1F48091DC0225
:10058000813021F48FE00E940A0209C0823051F4C8
:10059000809183048093B10283E08093DC0280E049
:1005A00090E0089581E090E00895809117058823F8
:1005B00021F0813021F478E00DC078E008C0882374
:1005C00029F0813031F02FE170E005C070E020E0CB
:1005D00002C070E02EE1622FEFB7F89480916209BB
:1005E0008E7F8093620987B1982F9F71829586953F
:1005F0008695837019F080E090E012C0822F8850B9
:10060000863118F081E090E00BC040E050E03327E5
:10061000892F99272817390711F441E050E0CA01C2
:10062000982F9170990F809162098178262F2F71F0
:10063000422F440F440F892B842B80936209332768
:1006400027B9783059F5809195049091960421E06E
:100650008638920718F087E090E01FC0833C910530
:1006600018F086E090E019C08136910518F085E019
:1006700090E013C08033910518F084E090E00DC045
:100680008831910518F083E090E007C00C9718F0CE
:1006900082E090E002C080E090E0782F7770887D63
:1006A000872B886D992786B98E2F99278FBF08953C
:1006B000982F969596959695E1E2F3E0E90FF11D56
:1006C000877021E030E002C0220F331F8A95E2F7E5
:1006D00080818223992708958091DA02823069F41B
:1006E0008091AE02843019F085E08093AE0281E003
:1006F0008093DA0289E00E940A02089561EE80E0A8
:100700000E94D2016091260589E00E94D2018AEF01
:1007100090E0019701960197E1F760918D048BE0DD
:100720000E94D20184E190E0019701960197E1F7E0
:100730000895E091AC02F091AD0285A19927982F20
:10074000882726A13327822B932BCC962091AF02AA
:100750003091B00247A18217930710F4426001C0A4
:100760004D7F47A38EE00E940A0285E080938604B5
:1007700008958FB7F89499272BB332E023272BBB2A
:100780008FBF08958FB7F89499272BB334E02327B0
:100790002BBB8FBF08957FB7F89462B720911105E6
:1007A00030911205409113055091140506B601FED3
:1007B0000FC081B792B7280F311D411D511D2F5F0A
:1007C0003F4F4F4F5F4F290F311D411D511D04C039
:1007D000260F311D411D511D872F99278FBFCA013B
:1007E000B90108951F931FB7F89480917E04882360
:1007F00039F40E940A02882319F481E080937E0470
:10080000812F99278FBF1F910895FA01422F61838D
:10081000672F77276083868324838091C902909114
:10082000CA02892B19F085E090E008958FB7F894FB
:1008300099271092CC021092CD02F093C802E09357
:10084000C70222E030E03093CA022093C90210921E
:10085000CF021092CE02495F4093CB028FBF9FB769
:10086000F89480919904882311F020E006C081E07B
:100870008093990410929A0421E0892F99278FBFC1
:10088000222329F00E94F20380E090E00895109264
:10089000CA021092C90281E090E00895FB018183B1
:1008A000892F9927808384E6868380911503909110
:1008B0001603892B19F085E090E0089570931603D4
:1008C0006093150344838091AB02882319F480E080
:1008D00090E00895868160817727762F66272181B1
:1008E0003327622B732B1092AB02242FAF010E948F
:1008F00005049927282F882339F081E08093AB02E3
:100900001092160310921503822F99270895DF92F3
:10091000EF92FF920F931F938FB7F894282F3327EE
:10092000D22E91B782B746B7981711F041FF02C097
:100930002FBF6AC0809118058823E1F10E94CB0384
:10094000E0909B04F0909C0400919D0410919E0403
:100950002091190530911A0540911B0550911C05F5
:100960006E197F09800B910B621773078407950737
:1009700020F01092180571E01EC02E0D3F1D401F83
:10098000511F8091110590911205A0911305B0910E
:100990001405281B390B4A0B5B0B273E310541051B
:1009A000510540F4822F223010F070E005C070E055
:1009B00082E002C070E086EE682F615000B601FC54
:1009C000FDCF82B7681709F46F5F20911105309150
:1009D00012054091130550911405DA01C9010196E1
:1009E000A11DB11D860F911DA11DB11D8217930779
:1009F000A407B50710F4622F609561BFDFBE7723AF
:100A000019F081E10E940A021F910F91FF90EF906F
:100A1000DF900895AFB7F894BB27E1E0E0931805A5
:100A200060939B0470939C0480939D0490939E0418
:100A30002093190530931A0540931B0550931C050C
:100A4000AFBF0E94870408956FE380E00E94D20147
:100A500060E08BE00E94D201089582E080938604DA
:100A60001092800410927F040E94F601BB98BA98FD
:100A700080EC8DB9B89808959FB7F89480912705B8
:100A80008A3011F020E006C020E08091B504843067
:100A900009F421E0892F99278FBF222349F082E0B2
:100AA0000E940A028FB7F89499271092C40206C0D8
:100AB0008FB7F894992721E02093C4028FBF08953F
:100AC0002FB7F89433278CB95E9A2FBF0895FC0195
:100AD0006115710519F481E090E0089580918F0906
:100AE00090919009892B19F085E090E0089570931A
:100AF000150960931409F0939009E0938F091092FF
:100B00000F0310920E0381E080937D045E9A569A43
:100B1000808121E030E030930F0320930E030E9488
:100B2000600580E090E008958091D5028E7F8093EB
:100B3000D5028EE780931E0561E070E08EE195E0BE
:100B40000E9467059927089566EA8EE00E94D20107
:100B500094988CE120E030E087FF02C0979A01C0B2
:100B600097989698969A2F5F3F4F2730310511F04E
:100B7000880FF2CF97989698969A8F98949A80E0DB
:100B800096989927879B04C0880F991F816001C0A0
:100B9000880F969A215030409FEF2F3F390781F7F9
:100BA000949A8F9A979A83FFD3CF66E28EE00E9441
:100BB000D2010895982F8091D002882381F599233E
:100BC00071F531E03093D0028091A4028093D1027C
:100BD0002091C502822F8170809320048091A90208
:100BE0009091AA029093D3028093D2028091C60280
:100BF0008093D40232273170267EE32FFF27EE0F39
:100C0000FF1FEB55FD4F808191819093AA02809345
:100C1000A902232B2093C50285E00E940A020895B1
:100C20000F931F93082F162F8091B5048130D9F0B0
:100C3000813038F0823009F44AC0833009F008C1AD
:100C400059C0002309F438C1109211031092100307
:100C500010921D0510921F0510928C0410920D0326
:100C600010920C0319C1002309F026C180910C03D6
:100C700090910D030E94C40190930D0380930C0387
:100C800082E08093B50410931F05143409F0E0C08E
:100C900005C1869504C08091C502869586958170B0
:100CA00009F0D6C08091C502992311F0846001C07B
:100CB00082608093C5028091C502877E88608093A0
:100CC000C5021092C6028FEF8093A402F5C00023E4
:100CD00009F0BEC060938C0480910C0390910D03C9
:100CE0000E94C40190930D0380930C0383E08093D2
:100CF000B504E2C080911D058F3F09F4A9C000230F
:100D000009F447C0823008F4A3C0E0911003EE2339
:100D100009F4CBC04E2F4150E42FFF27E05FFC4F7A
:100D200082819927382F2227442311F4E2E002C060
:100D3000E42FE150FF27E05FFC4F82819927282BA9
:100D4000392B80910C0390910D032817390709F076
:100D50007FC080E00E94DA0530918C0480914409C4
:100D600020914509982F9F5F963008F090E09217E8
:100D700009F46EC0E82FFF27EC5BF64F32838F5FDC
:100D800080934409863010F0109244090E94F203C7
:100D90005FC0823008F448C0E0911103FF27E05F94
:100DA000FC4F8281482F55272091C502822F8695BE
:100DB00086958695837099278130910519F0029761
:100DC000D1F409C0277E20612093C5021092C6028B
:100DD0004093A40210C08091C6028C3260F4E0916E
:100DE000A902F091AA02E80FF11D40838091C6028A
:100DF0008F5F8093C60280911103E82FFF27E05F89
:100E0000FC4F62818F5F80931103833010F010924A
:100E10001103772780910C0390910D030E94C40168
:100E200090930D0380930C0380911003E82FFF270C
:100E3000E05FFC4F12838F5F80931003833010F0CC
:100E40001092100380911D058F5F80931D0534C0A3
:100E500010921103109210031092B50410921D0508
:100E600010921F0510928C0410920D0310920C0327
:100E70008091D5028D7F8093D50281E00E94DA05B2
:100E80008091C402882331F084E08093B5040E94ED
:100E90003C0512C0002381F081E029CF8091C5027A
:100EA000982F917080FDF5CEF6CE8091140399278E
:100EB000382F222742E03CCF1F910F9108951F92B7
:100EC0000F920FB60F9211242F933F934F935F937E
:100ED0006F937F938F939F93AF93BF93EF93FF9302
:100EE0005F9B3DC06CB1E0912005F09121053097EA
:100EF000F9F08091930490919404E80FF91F6083B6
:100F0000019690939404809393042091B7043091B8
:100F1000B8048217930718F110922105109220054A
:100F200080911C038330D9F0579810921C0317C08E
:100F30006E3719F460E081E010C08091D5026D3702
:100F400021F482608093D5020AC081FF05C08D7FA5
:100F50008093D50280E2682780E00E941006FF910E
:100F6000EF91BF91AF919F918F917F916F915F9121
:100F70004F913F912F910F900FBE0F901F9018959A
:100F8000982F8D57823068F48091D50281608093CC
:100F9000D50280E28927809381048DE780931E0526
:100FA00002C090931E0561E070E08EE195E00E9422
:100FB00067059927089578941F920F920FB60F92A4
:100FC0001124FF920F931F932F933F934F935F939F
:100FD0006F937F938F939F93AF93BF93CF93DF9341
:100FE000EF93FF9320910E0330910F03809114092A
:100FF000909115092817390780F4E0918F09F09135
:101000009009E20FF31F80812F5F3F4F30930F0352
:1010100020930E030E946005D0C010929009109298
:101020008F0910927D0456988091D50280FF0EC0E2
:101030008E7F8093D5028091810480931E0561E0AC
:1010400070E08EE195E00E946705B7C080912705AA
:10105000843009F494C0853040F4823021F183302B
:10106000B8F5813009F0A4C00DC0863009F495C0F0
:10107000863008F48BC0873009F496C0883009F0B8
:1010800097C099C0809117090E94C007182F83E06C
:1010900080932705609117098091870490918804B7
:1010A0000E94C40110C0809191040E94C007182FB3
:1010B00083E080932705609191048091870490914B
:1010C00088040E94C40190938804809387046EC0B2
:1010D000FFB6F894E0911309FF27EE0FFF1FE856C3
:1010E000FB4F80810E94C007082F10911309C12F68
:1010F000DD27FE01EE0FFF1FE856FB4F6081809158
:101100008704909188040E94C4019093880480937E
:10111000870420918B042F5F20938B04113039F5C5
:101120008091CC02E091C702F091C802E80FF11D56
:10113000E0818F5F8093CC029091CB02981730F4BE
:1011400082E08093990440E050E002C04E2F552782
:10115000DE01AA0FBB1FFD01E956FB4F80818230E3
:1011600031F02F3F21F0A856BB4F4C9303C084E0D1
:1011700080932705102F8F2D99278FBF17C080913F
:1011800087040E94C007182F85E00BC08091880457
:101190000E94C007182F86E004C00E949405182FF3
:1011A00087E08093270502C088E003C0112329F05F
:1011B00089E0809327050E94F203FF91EF91DF9170
:1011C000CF91BF91AF919F918F917F916F915F91DF
:1011D0004F913F912F911F910F91FF900F900FBE54
:1011E0000F901F9018951F920F920FB60F92112417
:1011F0008F9380919B0087FF02C080919C008F910C
:101200000F900FBE0F901F90189578941F920F9219
:101210000FB60F9211240F900FBE0F901F901895CC
:1012200078941F920F920FB60F9211240F900FBE59
:101230000F901F90189578941F920F920FB60F92EF
:1012400011240F900FBE0F901F90189578941F9245
:101250000F920FB60F9211240F900FBE0F901F9098
:10126000189578941F920F920FB60F9211248F93B6
:101270009F9380918800909189009F918F910F900A
:101280000FBE0F901F90189578941F920F920FB673
:101290000F9211242F933F938F939F932FB7F8941E
:1012A000332780911F039091200301969093200390
:1012B00080931F032FBF9F918F913F912F910F908C
:1012C0000FBE0F901F9018951F920F920FB60F929E
:1012D00011248F9383B783BF00B600FCFDCF8F919D
:1012E0000F900FBE0F901F901895EF92FF920F93E3
:1012F0001F93CF93DF93EC018B01BA01A0E0B0E024
:10130000AC0142535F4FE3E0EE2EF12CE80EF91EE4
:10131000F70180819927982F882721813327822BF5
:10132000932B892B79F0FA0180819927982F8827B0
:1013300021813327822B932B8617970779F061152C
:10134000710561F0119682E090E0E80EF91E485FA9
:101350005F4FA436B105E1F680E01CC018828A8197
:1013600081508A83AA0FBB1F1396FE01EA0FFB1F51
:10137000139711821082AA0FBB1FAA0FBB1FA55380
:10138000BF4FF801AC0FBD1F88E00D900192815056
:10139000E1F781E09927DF91CF911F910F91FF90A5
:1013A000EF900895CF92DF92EF92FF920F931F93E9
:1013B000CF93DF938C016B01FC018081882319F0AE
:1013C00080E090E03EC0EE24FF24E801239688816F
:1013D0009927982F882729813327822B932B892BB4
:1013E00069F00894E11CF11C2296F4E6EF16F10472
:1013F00071F781E0F801808390E01BC0F8018281E1
:101400008F5F82830E94CB036983672F772768836E
:10141000F701A3E0EE0FFF1FAA95E1F7E553FF4F99
:10142000E00FF11FD60188E00D9001928150E1F7A5
:1014300091E0F8018281843611F481E08083892F64
:101440009927DF91CF911F910F91FF90EF90DF903F
:10145000CF9008951F920F920FB60F9211242F93E1
:101460003F934F935F936F937F938F939F93AF932C
:10147000BF93EF93FF9383B783BF00B600FCFDCF0C
:1014800081B799270196AA27BB2720911105309192
:1014900012054091130550911405280F391F4A1F5A
:1014A0005B1F209311053093120540931305509351
:1014B000140578940E948704FF91EF91BF91AF913A
:1014C0009F918F917F916F915F914F913F912F915C
:1014D0000F900FBE0F901F901895EF920F931F93D0
:1014E000AE2D99E0899FF0011124E352FD4F408316
:1014F0005183628373830483158326833783A170AA
:1015000080858E7F8A2B8260808782E10E940A021A
:101510001F910F91EF900895AF92BF92CF92DF92FB
:10152000EF92FF920F931F93F82E5A016B010E94C6
:10153000CB03AB01BC0131E0E32E960185018F2D79
:101540000E946D0A1F910F91FF90EF90DF90CF9056
:10155000BF90AF900895AF92BF92CF92DF92EF927B
:10156000FF920F931F93F82E5A016B010E94CB0339
:10157000AB01BC01EE24960185018F2D0E946D0AFE
:101580001F910F91FF90EF90DF90CF90BF90AF90A1
:101590000895EF92FF920F931F93CF93DF93982FAD
:1015A0008FB7F894E82E8091DC02833009F042C0B6
:1015B0008091B102891709F03DC0809121038823F1
:1015C00009F043C03BC0EF2DE695E695E695FF2771
:1015D0004F2D5527EF5DFC4F9A012770307081E049
:1015E00090E002C0880F991F2A95E2F7809520812C
:1015F00028232083C093DB0211C02196C230D1057D
:1016000011F4C0E0D0E0FC2E8C2F0E9458038823F8
:10161000D1F6C017D10789F74FEF50E0409383040C
:1016200081E08093DC028FE00E940A02EFBE80E03E
:1016300090E011C0EFBE81E090E00DC082E08093A9
:10164000B1021092DC023798F1CF8091DB02082FB3
:101650001127E801D2CFDF91CF911F910F91FF9019
:10166000EF9008950F931F936BE380E00E94D201E7
:1016700080ED97E0019701960197E1F769E380E03B
:101680000E94D20188EC90E0019701960197E1F762
:101690000FB7F89411270E942D050FBF1F910F91CE
:1016A00008958091D8028C3118F04CE150E002C0CE
:1016B000482F55278CE1E4E5F4E011928A95E9F78B
:1016C0009091D8028091D60220E030E0A4E5B4E009
:1016D0000FC0E82FFF27ED5DFC4FE081992329F033
:1016E0008F5F8A3F09F480E09150ED932F5F3F4F69
:1016F0002417350771F79093D8028093D6024CE1F6
:101700006DE474E08FEF9FEF0E944E04882319F080
:1017100088E00E940A0208951F93182F8091D90231
:10172000813049F48091D8028C3828F082E080938F
:10173000D9020E94510B8FB7F894282F332790912C
:10174000D8029A3FA8F48091D702E82FFF27ED5DD9
:10175000FC4F10838F5F8093D7028A3F11F4109261
:10176000D7029F5F9093D8022FBF80E090E003C024
:101770002FBF8FEF9FEF1F910895662359F480913B
:10178000D802882319F00E94510B089581E08093BC
:10179000D902089588E00E940A0208950F931F93CA
:1017A000CF93DF93182FEB01042FE82FFF27EE0FC5
:1017B000FF1FEB5EFC4F118210821092AB02E09192
:1017C0001503F0911603309721F08091160980FFE0
:1017D0000EC081E08093AB0203C087E00E940A0242
:1017E0001123B1F4602FCE010E94BD0B11C02481E2
:1017F000332760817727762F662781819927682B89
:10180000792BAF0186810E940504882349F3E5CF37
:10181000DF91CF911F910F9108958FB7F894282FE2
:1018200033278091D902823021F42FBF80E090E0ED
:10183000089590E08091D802882309F491E09923DB
:1018400021F02FBF81E090E0089582E08093D902DB
:101850002FBF0E94510B80E090E008951F93982FB6
:101860008091AE02843031F59093AE028091DC021B
:101870008823A9F412E01093DC0210928304379AB3
:101880000E94BA028091B1028823B9F081E080936E
:10189000DC0210928304379A0E94BA0214C080E0DE
:1018A0000E945803882379F48091210381608093FA
:1018B000210309C09093170306C01093B604109239
:1018C00017050E94D50280E090E01F910895809155
:1018D000DA02843069F1853019F1813091F5809117
:1018E000E50281FD2EC090E0809182048F3108F0E6
:1018F00091E0992381F080911A0390911B03892B29
:1019000029F440E05AE060E070E00EC04EE150E0A3
:1019100060E070E009C040E850E060E070E004C0C2
:1019200041E050E060E070E080E00E948C0A0895A1
:1019300040911A0350911B036627772780E00E948D
:101940008C0A08951F93CF93DF93EA01422F8E8371
:101950006983672F772768832FB7F894332780919F
:10196000B2029091B3022FBF8B83892F99278A836C
:1019700082E28D838FB7F894282F332790918E09B8
:1019800091FD04C080918604882321F42FBF81E05B
:1019900090E062C0926090938E094C83D0931F04B4
:1019A000C0931E042FBF1FB7F89480918F048260EC
:1019B00080938F048091DA02843019F48BE00E94C6
:1019C0000A0280918F0480FD0BC00E9431026F716A
:1019D00070706F5F7F4F709316056093150506C09A
:1019E00081E090E09093160580931505FE01B59671
:1019F0008DA12EA19927782F66273327622B732B71
:101A000077FD05C060911A0370911B0302C06095B9
:101A10007095118210826115710529F466E070E0FD
:101A200080E090E010C08827992726E632E040E069
:101A300050E00E94C023672F782F892F99276A5E74
:101A40007F4F8F4F9F4F7093B2046093B104812FEB
:101A500099278FBF80E090E0DF91CF911F9108958B
:101A6000FB018183892F9927808380E18683809180
:101A7000180390911903892B19F085E090E00895DF
:101A8000709319036093180344838091B5028823EF
:101A900019F480E090E00895868160817727762FA1
:101AA000662721813327622B732B1092B502242FD6
:101AB000AF010E94A20C9927282F882339F081E0DA
:101AC0008093B5021092190310921803822F992760
:101AD00008956F927F928F929F92AF92BF92CF9212
:101AE000DF92EF92FF920F931F93CF93DF93CDB7C7
:101AF000DEB728970FB6F894DEBF0FBECDBF4B01FF
:101B00005C01CC24DD24EDEDF2E07C2D608561FFED
:101B1000CDC22081318142815381E480F5800681EC
:101B20001781D501C401821B930BA40BB50B8E1535
:101B30009F05A007B10708F4B9C260FF03C06D7F1D
:101B4000608708C02E0D3F1D401F511F2083318329
:101B500042835383723009F4AAC0733030F4772380
:101B600059F0713009F0ABC242C0733009F49DC125
:101B7000743009F0A4C24BC28FB7F894082F112714
:101B8000F02E8091DA028430B9F08530F9F081309E
:101B900051F590E080918604833009F491E0992317
:101BA00011F58091AE02843019F085E08093AE0289
:101BB00081E00E942E0C17C085E08093DA0210921B
:101BC000630969E380E00E94D2010DC00E94F60122
:101BD00083E00E942E0C80E590E00197019601972A
:101BE000E1F70FBF6CC20E94670CFFBE68C2809015
:101BF00083099924982C8824809184099927882A1C
:101C0000992AA0908109BB24BA2CAA248091820928
:101C10009927A82AB92AC0907F09DD24DC2CCC247E
:101C2000809180099927C82AD92AE0907D09FF244C
:101C3000FE2CEE2480917E099927E82AF92A00914A
:101C400085091127102F0027809186099927082BD5
:101C5000192B0E94CB039F928F92BF92AF92DF927B
:101C6000CF92FF92EF921F930F939F938F937F9347
:101C70006F9380916D099927982F882720916E097D
:101C80003327822B932B9F938F9380E091E09F9338
:101C90008F930E94B9200E940D0C4DB75EB74E5E27
:101CA0005F4F0FB6F8945EBF0FBE4DBF08C2809164
:101CB00000038D7F80930003809109038D7F8093C3
:101CC0000903209175093327322F22278091760945
:101CD0009927282B392B2F5F3F4F20937609632EAE
:101CE000772460927509A0907709BB24BA2CAA24A6
:101CF000809178099927A82AB92AC0907909DD240A
:101D0000DC2CCC2480917A099927C82AD92A762CF0
:101D100066243327622A732AE0907309FF24FE2C7D
:101D2000EE24809174099927E82AF92A0091710913
:101D30001127102F0027809172099927082B192B42
:101D40008090700999240E94CB03BF92AF92DF92DA
:101D5000CF927F926F922AE030E03F932F93FF92D1
:101D6000EF921F930F939F928F929F938F937F93E6
:101D70006F9380916D099927982F882720916E097C
:101D80003327822B932B9F938F9380E591E09F9332
:101D90008F930E94B9200E940D0C20917109332766
:101DA000322F2227809172099927282B392B809175
:101DB000700999274DB75EB74A5E5F4F0FB6F8942A
:101DC0005EBF0FBE4DBF28173907F1F080916A0939
:101DD0009927582F442780916B099927482B592B15
:101DE0004115510529F06627772783E00E94AB0A49
:101DF00080916C099927482F882331F05527662751
:101E0000772784E00E94AB0A809171099927982F67
:101E10008827209172093327822B932B0196809378
:101E20007209292F332720937109322F22279927EE
:101E3000282B392B2430310508F441C10E9431028E
:101E40006370609370091092720910927109209169
:101E500073093327322F2227809174099927282B61
:101E6000392B2F5F3F4F20937409832F992780933D
:101E70007309982F88273327822B932B0A9708F40E
:101E80001EC110926C091BC1809187099927982F58
:101E90008827209188093327822B932B01968093E2
:101EA0008809892F99278093870980918D09882334
:101EB00059F780E180931F0980916D099927982F28
:101EC000882720916E093327822B932B8093210939
:101ED000892F9927809320091092230910922209B3
:101EE0000E94CB0360932509672F7727609324090D
:101EF000809177099927982F88272091780933278F
:101F0000822B932B019680937809892F99278093B0
:101F1000770948E068E179E08FEF9FEF0E94300D8C
:101F200060917B0940917C09882399F4862F992739
:101F3000982F8827242F3327822B932B0196809369
:101F40007C09892F992780937B0981E080938D09F3
:101F5000B6C0209189093327322F222780918A0920
:101F60009927282B392B2F5F3F4F20938A09232F46
:101F7000332720938909862F9927982F882755275B
:101F8000842B952B9F938F93322F222780918A0940
:101F90009927282B392B3F932F938091220999273A
:101FA000982F8827209123093327822B932B9F93E7
:101FB0008F93809120099927982F882720912109B4
:101FC0003327822B932B9F938F93809124099927FA
:101FD000982F8827209125093327822B932B9F93B5
:101FE0008F9380911F0999279F938F9382EA91E0A5
:101FF0009F938F930E94B9200E940D0C8DB79EB7BE
:102000000E960FB6F8949EBF0FBE8DBF58C020919C
:102010006D093327322F222780916E099927282BAB
:10202000392B122F80E289832B83232F33272A8396
:102030000E94CB036F83672F77276E830AC00E94AD
:102040003102DC01CB0165E070E00E94DF23182F34
:102050001F5F412F552780916D099927982F882759
:1020600020916E093327822B932B4817590739F398
:102070004D831C8280917A098887BE016F5F7F4FF4
:1020800088E295E00E94D209809179099927982FDA
:10209000882720917A093327822B932B01968093EE
:1020A0007A09892F99278093790909C00894C11C5E
:1020B000D11C399695E0C916D10409F026CD82E1EC
:1020C0000E940A0228960FB6F894DEBF0FBECDBF5D
:1020D000DF91CF911F910F91FF90EF90DF90CF9004
:1020E000BF90AF909F908F907F906F9008950F93C7
:1020F0001F93182F042FE82FFF27EE0FFF1FE85E16
:10210000FC4F118210821092B502E0911803F091F9
:102110001903309721F080911D0480FF13C081E0E6
:102120008093B50203C084E10E940A021123D9F40E
:1021300010928D09002319F40E94B90314C00E9463
:10214000C20311C02481332760817727762F662749
:1021500081819927682B792BAF0186810E94A20C7F
:10216000882321F3E0CF1F910F9108951F920F92C2
:102170000FB60F9211241F932F933F934F935F93AA
:102180006F937F938F939F93AF93BF93CF93DF937F
:10219000EF93FF93C4B1D5B178948FB7F894992792
:1021A00020916209322F3695317021708FBF222322
:1021B00009F0E0C033988091B604813021F082307C
:1021C00009F0FEC00AC0332351F0D0931E03C09320
:1021D0001D0380E10E940A02F3C0332319F40E9418
:1021E000D502EEC01092B60480911705882309F03D
:1021F000E7C01FB7F8948091AE02813089F081303A
:1022000030F08230B1F0833009F09CC056C0E091CC
:10221000AC02F091AD02C6A38D2F992785A392C081
:10222000D0938504C09384048CE00E940A028BE062
:1022300069C0209163092F5F209363098091AF02E9
:102240009091B0020C968C179D0740F480919004F9
:102250008F5F80939004882339F402C01092900419
:1022600080918F0480FF18C083E08093DA0287E0BA
:10227000809386041092800410927F041092670964
:10228000109266098AEA80930B0380938E040E9461
:102290007E03BB9ABA9A56C0253059F40E94310287
:1022A0006F7070706F5F7F4F7093160560931505A8
:1022B00049C082E00E942E0C45C08091AF029091EF
:1022C000B0029C013695279536952795821B930B76
:1022D0008C179D07D0F48BE00E940A028091AF0218
:1022E0009091B0029C0153E0369527955A95E1F7FD
:1022F000820F931FC817D90728F5D0938504C09380
:1023000084048CE00E940A021DC0809163098F5FE3
:10231000809363098150863060F085E08093AE023F
:1023200081E08093DA0289E00E940A020E942D0572
:1023300009C083E00E942E0C80E590E00197019691
:102340000197E1F7809117038093AE02843059F032
:1023500084E08093170382E08093B60410921705FF
:102360000E94D50203C080E00E94C90A812F9927EC
:102370008FBF26C08FB7F89499278FBF2FB7F894D7
:10238000332786B1582F5770482F4072987D942B71
:10239000952B8074977B982B90619F77892F992735
:1023A00086B9887D842B852B87738061992786B9B0
:1023B000887D842B852B877B8069992786B92FBFE1
:1023C000FF91EF91DF91CF91BF91AF919F918F914D
:1023D0007F916F915F914F913F912F911F910F903E
:1023E0000FBE0F901F901895AF92BF92CF92DF92C1
:1023F000EF92FF920F931F93CF93DF93CDB7DEB78A
:1024000062970FB6F894DEBF0FBECDBFE82FFF274F
:10241000E531F10510F00C943A1AEA5BFF4FEE0F2C
:10242000FF1F0590F491E02D0994809116098823EF
:1024300011F40C943A1A90E011E064C280911D04EA
:10244000882311F40C943A1A20E011E00C940D1A30
:102450008FB7F89410927E042091270540E0283031
:1024600009F441E030E0293009F431E0442311F46B
:10247000332351F010922705E0911309FF27EE0F47
:10248000FF1FE956FB4F108299278FBF442311F499
:10249000332319F1809191048F5F8093910480918F
:1024A00017098334A1F49FB7F894209145098091CE
:1024B0004409821741F0822F8F5F8093450986304F
:1024C00010F010924509892F99278FBF0AC0A0E00C
:1024D000442309F4A1E071E006C0222311F010E0CA
:1024E00069C0A0E070E08FB7F89499272091C402EA
:1024F0008FBF222341F08FB7F89499272AE02093C9
:1025000027058FBF43C08FB7F89499276091970430
:10251000409199048FBF8FB7F894282F332750E04C
:102520009091440980914509981709F451E02FBF13
:10253000552349F5662339F55FB7F89482E0809317
:1025400097048FB7F894282F332740E090914409DF
:1025500080914509981709F441E02FBF442311F0F9
:1025600080E006C0E0914509FF27EC5BF64F8281D1
:1025700080939804852F99278FBF83E48093170950
:10258000109213090BC04150423010F010E007C008
:1025900085E48093170981E08093130911E0772384
:1025A00049F08FB7F8949927A093CD028FBF84E0AC
:1025B0000E940A02809127058A3019F40E943C0586
:1025C00059C7112309F456C72FB7F894332710922F
:1025D00088041092870410928B0481E08093270571
:1025E0002FBF0E949405882309F444C78FB7F8943D
:1025F000992729E0209327058FBF0E94F2033AC74D
:102600005698579810921C0310927D04539A549A2E
:10261000579A8091D902882309F02CC786EB92E063
:1026200090939409809393098FB7F894992721E0A8
:102630002093D9028FBF2FB7F89433278091B2022D
:102640009091B3022FBF80936E09892F99278093B1
:102650006D098FB7F89499272091B4028FBF20930A
:102660006F091092280584E68093290510922A05A7
:10267000EBE2F5E011821082329625E0E33FF207AB
:10268000C9F780916D099927982F882720916E09A5
:102690003327822B932B2FB7F89433270196AA2741
:1026A000BB278093790490937A04A0937B04B09322
:1026B0007C042FBF0E943102DC01CB0168EB7BE080
:1026C0000E94DF239C012854344F20936909832FF3
:1026D000992780936809982F88273327822B932B7B
:1026E0006AE070E00E94DF2360936B09672F772711
:1026F00060936A090E9431026370609370090E94BE
:102700003102DC01CB0164E670E00E94DF23865FCA
:1027100080936C09109272091092710910927409D9
:102720001092730910927609109275091092780927
:102730001092770910927A091092790910927C0907
:1027400010927B0910927E0910927D0910928009E7
:1027500010927F09109282091092810910928409C7
:1027600010928309109286091092850910928809A7
:102770001092870910928A091092890910928C0987
:1027800010928B098FB7F894082F11278091DA02E5
:10279000882309F591E09093860480918E098D7FBE
:1027A000846080938E098091AE02843019F085E0B8
:1027B0008093AE029093DA0289E00E940A0280912F
:1027C0008F048D7F80938F040FBF0E94320B8AE0AD
:1027D0000E940A0201C00FBF48EB5BE060E070E0BE
:1027E00081E00E94AB0A80916C0999279F938F9397
:1027F000809171099927982F882720917209332792
:10280000822B932B9F938F938091700999279F938D
:102810008F93809168099927982F882720916909BB
:102820003327822B932B9F938F9380916D09992748
:10283000982F882720916E093327822B932B9F9303
:102840008F9384EE91E09F938F930E94B9204DB7B0
:102850005EB7445F5F4F0FB6F8945EBF0FBE4DBFCB
:1028600009C683E08BC0539854988FB7F894992782
:102870001092D90245C01092CA021092C9028FB7B5
:10288000F89499274091CD028FBF8091CE0281119B
:1028900043E02091C7023091C8028091CF02882383
:1028A00009F0E8C58091AB02882309F0E3C5609187
:1028B0001503709116036217730709F0DBC550C04A
:1028C0008FB7F89499272091D2023091D30240918A
:1028D00020048FBF8FB7F894E42FFF27EE0FFF1F60
:1028E000EB55FD4F318320832091C502442311F025
:1028F0002B7F01C02D7F2093C5021092D002992713
:102900008FBFB8C520911609812F8223C1F0E92F0E
:10291000FF27EE0FFF1FEB5EFC4F408151811182BC
:102920001082812F8095282320931609992339F44A
:1029300063E0CA010E94BD0B110F91E0E3CF9F5FDE
:10294000983008F097C5110FDDCF8091AB02E82FCA
:10295000FF27EE0FFF1FEB5EFC4F6081718141E0AE
:102960000E94CE0B87C54CE16DE474E08FEF9FEFC2
:102970000E944E04882309F47DC588E00E940A0263
:1029800079C50FB7F89411270E94670C07C18FB75C
:10299000F89499272091DA028FBF222309F46AC59F
:1029A000809168099927982F8827209169093327F2
:1029B000822B932B9F938F9380916D099927982F4A
:1029C000882720916E093327822B932B9F938F9317
:1029D0008FE292E09F938F930E94B9204091680903
:1029E0005527542F4427809169099927482B592B43
:1029F0006627772782E00E94AB0A8DB79EB70696BE
:102A00000FB6F8949EBF0FBE8DBF34C51FB7F894A4
:102A100080918F0481FD06C080911A0390911B0361
:102A2000892BA1F48091DA028450823098F580914C
:102A3000AE02843019F085E08093AE0281E080938D
:102A4000DA0289E00E940A0221E025C090E080912C
:102A500082048F3108F091E09923E1F090E08091B9
:102A60008604833009F491E09923A1F40E9424059F
:102A700081E0809386046F98B89AC0988091AE02E6
:102A8000843019F085E08093AE0284E08093DA020E
:102A90000E94670C20E0812F99278FBF222309F421
:102AA000E9C40E94320BE6C48FB7F89499272091AD
:102AB0008404309185048FBF80912203E82FFF2783
:102AC000EE0FFF1FE156FB4F318320838F5F809312
:102AD0002203893010F010922203809182048F31FA
:102AE00018F48F5F80938204DE011196EFE9F4E021
:102AF00082E101900D928150E1F760E08E010F5F5D
:102B00001F4F41E050E0DE011396E52FFF27EE0F47
:102B1000FF1FE00FF11F2D913C9111978081918152
:102B20008217930708F4542F4F5F1296493069F7C4
:102B3000E52FFF27633041F0EE0FFF1FE00FF11F7D
:102B4000118210826F5FDDCF6091AF027091B00291
:102B500088279927B5E0660F771F881F991FBA95B8
:102B6000D1F7EE0FFF1FE00FF11F208131814427C5
:102B70005527220F331F441F551F620F731F841FD9
:102B8000951F0FB7F894112722E230E040E050E0A3
:102B90000E94F3233093B0022093AF020FBF6AC4A8
:102BA0002FB7F894332740911E0450911F04809151
:102BB0008E098D7F80938E0982E080938604109227
:102BC000800410927F042FBF8091B502882309F002
:102BD00051C460911803709119036417750709F0C7
:102BE00049C440E045C48FB7F894282F332780911B
:102BF0008604853011F02FBF3DC40091AC021091C6
:102C0000AD022FBFF80184A123A19927982F88270F
:102C10003327822B932B019709F031C380814181A7
:102C20002FB7F89433276091B2027091B3022FBF8F
:102C30009927982F88275527842B952B8617970738
:102C400061F0808121819927982F88273327822B53
:102C5000932B8F5F9F4F09F012C3F801868180315B
:102C600009F00DC397E0E92EF12CE00EF11E20854E
:102C70004185878199279F938F933327322F22276E
:102C80005527242B352B3F932F938FE692E09F936C
:102C90008F930E94B920809185099927982F8827C2
:102CA000209186093327822B932B019680938609E6
:102CB000892F9927809385092FB7F89433278BB3F1
:102CC00091E089278BBB2FBFF80187812DB73EB7D5
:102CD0002A5F3F4F0FB6F8943EBF0FBE2DBF992716
:102CE000803209F473C28F3709F4E6C0803109F0ED
:102CF000B5C286E892E09F938F930E94B92080919D
:102D00007D099927982F882720917E093327822BC8
:102D1000932B019680937E09892F992780937D09B3
:102D20000F900F9080918D09482F5527809187092A
:102D3000209188090AC09927982F88273327822B4A
:102D4000932B0196282F892F99274423A1F72093AD
:102D50008809809387098FE780931F0920916D0967
:102D60003327322F222780916E099927282B392B60
:102D700020932109832F992780932009982F882752
:102D80003327822B932B80932309892F99278093B4
:102D900022090E94CB0360932509672F7727609350
:102DA000240980912A058093260980912209992778
:102DB000982F882720912309332748E068E179E09C
:102DC000822B932B0E94300D60917B0940917C09EE
:102DD000882399F4862F9927982F8827242F332723
:102DE000822B932B019680937C09892F99278093BE
:102DF0007B0981E080938D0942C2209189093327A4
:102E0000322F222780918A099927282B392B2F5F6F
:102E10003F4F20938A09232F332720938909862F38
:102E20009927982F88275527842B952B9F938F932D
:102E3000322F222780918A099927282B392B3F93FB
:102E40002F93809122099927982F88272091230971
:102E50003327822B932B9F938F938091200999275F
:102E6000982F8827209121093327822B932B9F931A
:102E70008F93809124099927982F882720912509DD
:102E80003327822B932B9F938F9380911F09992730
:102E90009F938F9382EA91E09F938F930E94B92032
:102EA0000E940D0C4DB75EB7425F5F4F0FB6F894AE
:102EB0005EBF0FBE4DBFE3C181E992E09F938F9348
:102EC0000E94B92080917F099927982F8827209107
:102ED00080093327822B932B019680938009892FB9
:102EE000992780937F09F8018685282F33278091C1
:102EF0002A05281B310937FF03C0309521953F4F24
:102F00000F900F902A30310594F0B9C18091870954
:102F10009927982F8827209188093327822B932B74
:102F2000019680938809892F99278093870980913A
:102F30008D09882359F7F701418182815527542F44
:102F400044279927482B592B6FE179E088E295E0D7
:102F50000E947509882309F4CFC08091220999271E
:102F6000982F882720912309332748E068E179E0EA
:102F7000822B932B0E94300D60917B0940917C093C
:102F8000882399F4862F9927982F8827242F332771
:102F9000822B932B019680937C09892F992780930C
:102FA0007B0981E080938D09C2CF20918909332765
:102FB000322F222780918A099927282B392B2F5FBE
:102FC0003F4F20938A09232F332720938909862F87
:102FD0009927982F88275527842B952B9F938F937C
:102FE000322F222780918A099927282B392B3F934A
:102FF0002F93809122099927982F882720912309C0
:103000003327822B932B9F938F93809120099927AD
:10301000982F8827209121093327822B932B9F9368
:103020008F93809124099927982F8827209125092B
:103030003327822B932B9F938F9380911F0999277E
:103040009F938F9382EA91E09F938F930E94B92080
:103050000E940D0C2DB73EB7225F3F4F0FB6F8947C
:103060003EBF0FBE2DBF63CF809187099927982F50
:103070008827209188093327822B932B01968093F0
:103080008809892F99278093870980918D09882342
:1030900059F740E050E06FE179E088E295E00E9466
:1030A0007509882309F4EBC0809122099927982F8C
:1030B000882720912309332748E068E179E0822BB3
:1030C000932B0E94300D60917B0940917C098823ED
:1030D000B1F4862F9927982F8827242F3327822B06
:1030E000932B019680937C09892F992780937B09E4
:1030F00081E080938D0961C0EE24FF24C6CF20912A
:1031000089093327322F222780918A099927282B72
:10311000392B2F5F3F4F20938A09232F332720938A
:103120008909862F9927982F88275527842B952B37
:103130009F938F93322F222780918A099927282BDA
:10314000392B3F932F93809122099927982F882715
:10315000209123093327822B932B9F938F93809168
:1031600020099927982F8827209121093327822B1E
:10317000932B9F938F93809124099927982F8827C9
:10318000209125093327822B932B9F938F93809136
:103190001F0999279F938F9382EA91E09F938F93C2
:1031A0000E94B9200E940D0C4DB75EB7425F5F4F81
:1031B0000FB6F8945EBF0FBE4DBF0894E11CF11C22
:1031C00055E0E516F1040CF460CF59C08BE992E0AC
:1031D0009F938F930E94B920809181099927982FFE
:1031E0008827209182093327822B932B0196809385
:1031F0008209892F992780938109F8014285838567
:103200005527542F44279927482B592B20916D0976
:103210003327322F222780916E099927282B392BAB
:103220000F900F904217530751F1B70188E295E0D4
:103230000E94D209882319F580918B099927982F2C
:10324000882720918C093327822B932B019680931A
:103250008C09892F992780938B0911C0809183094C
:103260009927982F8827209184093327822B932B25
:10327000019680938409892F992780938309FFB64B
:10328000F8940115110521F01093AD020093AC02E2
:1032900080918604853039F482E080938604109210
:1032A000800410927F040E946C038F2D992728CBF5
:1032B0008FB7F8949927209183042093B10223E0DB
:1032C0002093DC028FBF8091B102882321F08130EE
:1032D00009F0D0C006C082E08093B60410921705B2
:1032E00004C08093B604809317050E94D502C2C023
:1032F0001092B60480911705813009F0BBC00E947E
:10330000C90AB8C080910A03882361F5209122057B
:10331000309123054091240550912505EFB7F8948D
:10332000FF2760919B0470919C0480919D04909173
:103330009E04E0901905F0901A0500911B0510916C
:103340001C056E0D7F1D801F911FEFBF209322056E
:1033500030932305409324055093250510920A03CA
:103360000E940A050E94CB0343C00E94CB035B016D
:103370006C018FB7F8949927109218058FBF1FEF33
:10338000E12E1FEFF12E1FEF012F1FE7112F60E03D
:10339000EDEDF2E0808581FF1CC080819181A281EA
:1033A000B381A6019501281B390B4A0B5B0BDA018F
:1033B000C9012481358146815781281B390B4A0B6D
:1033C0005B0B2E153F05400751071CF479018A015C
:1033D00061E0399633E0EA30F307E1F6662309F459
:1033E00049C01E141F04100611062CF0C601B501B9
:1033F0000E94690D3FC0E0922205F09223050093E0
:1034000024051093250581E080930A03A801970104
:10341000C601B5010E940A052DC090911D04812F9F
:103420008923B1F0E22FFF27EE0FFF1FE85EFC4F6C
:1034300011821082812F8095982390931D0422235E
:1034400039F410928D090E94C203110F21E0E5CFDB
:103450002F5F283078F4110FE0CF8091B502E82F6C
:10346000FF27EE0FFF1FE85EFC4F6081718141E096
:103470000E94771062960FB6F894DEBF0FBECDBFE4
:10348000DF91CF911F910F91FF90EF90DF90CF9040
:10349000BF90AF90089580914C098F3FB1F0282FD5
:1034A0003327F901E35BF64F808180934C098F3F0E
:1034B00011F4809364098FEF80832F3F31F0822FC6
:1034C0000E94F41181E090E0089580E090E008957A
:1034D000CFEFD0E1DEBFCDBFFFB6F89445E150E0BD
:1034E0006FEF70E08DE499E00E94B2208FEF80933F
:1034F0004C098093640981E08EBD88E080BF83E041
:1035000083BF8CB59DB54AE72CB53DB52817390763
:1035100008F44150442311F0C901F6CF92B782B7A5
:103520008917E9F32CB53DB592B782B78917E9F34E
:103530008CB59DB5821B930B409635E0969587958B
:103540003A95E1F7909396048093950413BE83B760
:103550008EBD8EB580BF12BE1DBC1CBC8FEF86BF5A
:1035600086B780937C0080B7992787709070892BED
:10357000D1F7D29AD19AD09ADA9AD99AD89A15BA1A
:103580008FEF84BBD498DC9816B810928900109203
:10359000880080917D00846080937D0080918A0006
:1035A000887F826080938A00D6988C9A8E9A8F9AB0
:1035B000949A979A969A6FE380E00E94D20160E015
:1035C0008BE00E94D201B998BF98BB98BA9880E26C
:1035D00085BF0E944B1A8823E1F780B7886080BFBF
:1035E0008BE083BF86EE81BF87B7826087BF0E9472
:1035F00087048091A2029091A3020196AA27BB277B
:103600008093790490937A04A0937B04B0937C0414
:103610001092210380918E09816080938E096B98AE
:103620006A986F9A6E9A6AE380E00E94D2016BE317
:1036300080E00E94D20180ED97E00197019601970A
:10364000E1F780E880938D0460E88BE00E94D2016E
:1036500060E984E00E94D20160E08FE00E94D20124
:103660006FE680E10E94D20165E581E10E94D2010E
:1036700061E083E10E94D201C1E0D0E006ED12E0FA
:10368000F801C895602D8C2F0E94D20121960F5F02
:103690001F4FCD30D105A1F707EE12E0F801C89514
:1036A000602D82E10E94D20109501040F801C895B6
:1036B000802D80939204065F1F4FF801C895802DDE
:1036C0008093260508501040F801C895802D8093FE
:1036D0008D0460E08BE00E94D2016FE382E40E94DF
:1036E000D20161E180E00E94D2010E94A40561EE56
:1036F00080E00E94D2016091260589E00E94D201FB
:1037000060E08BE00E94D2010E94A4050E94F601B5
:103710000E942405EFE9F4E080E291E08193919327
:1037200024E0E13BF207D1F712E006E06091950456
:1037300070919604882799272CE0660F771F881FC1
:10374000991F2A95D1F720E031EE40E050E00E9429
:10375000F3232150304029B9832F9927809390007B
:103760001BB9009395001AB8209399008093980094
:1037700010939B0000939D0010929A0084E490E0C7
:1037800090938A048093890410929704109299046C
:103790001092270510928B04109217091092910431
:1037A000109288041092870410927E0410921309DC
:1037B00010921103109210031092B50410921D057F
:1037C00010921F0510928C0410920D0310920C039E
:1037D00010924509109244090E944B1A8823E1F780
:1037E0008F2D99278FBF789481E00E940A028FB7AE
:1037F000F894482F552749C087B799278370907050
:10380000892B19F4E5E0F0E013C080B799278770A1
:103810009070892BD1F781B792B7891B8C3030F02B
:1038200082B7853F18F4E3E0F0E002C0E2E0F0E0A8
:1038300087B7887BC1F480917D008B7FA1F46E995E
:1038400012C08AB190919A00892B807C61F480919A
:10385000740082FD08C0379B03C081E090E005C082
:1038600085E090E002C080E090E025B78E1708F474
:10387000E82FFF27EA54FD4FC895E02D237E2062F4
:10388000E22BE5BF78948895F89480914C098F3F9E
:1038900009F4B2CF282F3327F901E35BF64F80817B
:1038A00080934C098F3F11F4809364098FEF8083DC
:1038B0002F3F09F4A1CF4FBF822F0E94F41197CF61
:1038C0001F920F920FB60F9211240F931F932F93F5
:1038D0003F934F935F936F937F938F939F93AF9398
:1038E000BF93CF93DF93EF93FF931FB180918E042B
:1038F0008FB960918E0962FD1095809186048830A1
:1039000009F444C0893098F4843009F4C7C1853083
:1039100038F4823009F40AC1833009F08DC251C1F4
:10392000863009F458C2873009F086C215C08B3042
:1039300009F475C08C3030F48930A9F18A3009F06F
:103940007BC25FC08D3009F4A9C08D3008F486C0F9
:103950008E3009F071C2D4C080910B0380938E0425
:1039600080917F04909180040196909380048093CD
:103970007F042091B1043091B2048217930708F4B8
:103980005BC283E380930B0388E054C280910B03F6
:1039900080938E048CEC80930B0389E080938604E3
:1039A0008FEF9FEFC6C1A0911E04B0911F048091BC
:1039B0000B0380938E04E0917F04F0918004319694
:1039C000F0938004E0937F04ED018C8199270796A2
:1039D000E817F90780F4EA0FFB1F608160930B037F
:1039E00080916609909167090E94C40190936709CC
:1039F0008093660921C28091660980930B038AE057
:103A000019C280910B0380938E0480916609909176
:103A10006709892F992780930B038BE013C080914E
:103A20000B0380938E0480917F0490918004019613
:103A30009093800480937F04049708F4FDC160FF95
:103A400008C08CE0809386041092800410927F045A
:103A5000F3C1BB98BA980E94F601EBC180910B03A9
:103A600080938E0480917F049091800401969093BE
:103A7000800480937F048130910529F4BB98BA9823
:103A80000E94F601D9C1049708F4D6C18DE0809355
:103A900086041092B4041092B304D6CF80910B0325
:103AA00080938E0480917F0490918004019690937E
:103AB000800480937F048091B3049091B40420E04B
:103AC000880F991F17FD81603AEB8338930709F43B
:103AD000A5C12F5F283011F0110FF2CF9093B404DD
:103AE0008093B30480917F0490918004429708F4FE
:103AF000A3C1E0911E04F0911F0487A18E7F98C19D
:103B00008DE00E940A0280918F048D7F80938F0444
:103B10008091AE02843019F085E08093AE0281E09E
:103B20008093DA0289E00E940A0286C11A3A19F0EB
:103B3000153509F06DC180917F0490918004019644
:103B40009093800480937F04039758F083E08093E0
:103B500086041092800410927F041092B404109294
:103B6000B30491E080918F0481FF66C180FD0DC098
:103B7000992359F00E9431026F7070706F5F7F4F10
:103B8000709316056093150557C1809115059091A6
:103B90001605009709F450C101979093160580937C
:103BA0001505892B09F048C18091AE02843019F0C7
:103BB00085E08093AE021092630982E00E942E0C91
:103BC0003BC11A3A11F0153529F4812F9927982F06
:103BD000882714C080917F0490918004019690936F
:103BE000800480937F048130910569F4212F33276D
:103BF0008091B3049091B404822B932B9093B404DE
:103C00008093B30419C1079708F046C0C091B3046C
:103C1000D091B4049C2F8827212F3327822B932BFC
:103C20009093B4048093B30407E0CC0FDD1F17FD1D
:103C3000C16083E3CC3CD80749F5E091AC02F09138
:103C4000AD0284E0809386048CE18483109280042A
:103C500010927F0410926709109266098091AE025B
:103C6000843019F085E08093AE0282E08093DA021E
:103C7000902F9770990F990F990F80918E09877CDB
:103C8000892B80938E0980E00E942E0C01500F3FFB
:103C900009F4D2C0110FC9CF82E0D4CEE091AC02BA
:103CA000F091AD0244814D3150F082E08093860462
:103CB0001092800410927F040E946C03BDC080911A
:103CC000B3049091B404982F8827212F3327822B97
:103CD000932B9093B4048093B30466956695669590
:103CE000677002C0969587956A95E2F7BC0180914E
:103CF0007F0490918004E80FF91F6083EC01219606
:103D0000D0938004C0937F04495F042F11270C17C0
:103D10001D0750F080916609909167090E94C401C7
:103D20009093670980936609C017D10739F483E23D
:103D300090E09093800480937F047EC0A59709F063
:103D40007BC0E091AC02F091AD0284A123A140E0E0
:103D500050E09927982F88273327822B932B209187
:103D60006609309167098217930711F441E050E02A
:103D7000242F43A3852F9927482F84A380918E0950
:103D800080FF39C0842F9927982F88273327822BCB
:103D9000932B892B81F1808141812FB7F8943327B0
:103DA0006091B2027091B3022FBF9927982F882794
:103DB0005527842B952B86179707E9F486E0809387
:103DC00086041092800410927F040E947E03BB9AA6
:103DD000BA9A8AEA1AC0E0917F04F0918004319681
:103DE000F0938004E0937F04E031F10538F00E9405
:103DF000F601BB98BA980E9499031EC0EB30F105FA
:103E0000D8F0EF54FD4FC895802D80938E0414C0D8
:103E10001092800410927F0490E0A4CE9093B4049A
:103E20008093B304E0911E04F0911F0487A1816088
:103E300087A38EE080938604FF91EF91DF91CF916D
:103E4000BF91AF919F918F917F916F915F914F91B2
:103E50003F912F911F910F910F900FBE0F901F90C8
:103E60001895ACE2B0E0E7E3FFE10C941524222EB4
:103E7000332E442E552E662E772E882E992EFE0137
:103E80003196A8E01192AA95E9F729823A824B82ED
:103E90005C826D827E828F829886FE013996B8E0C0
:103EA0001192BA95E9F7A986BA86CB86DC86ED86AB
:103EB000FE860F87188B89819A81AB81BC8189A787
:103EC0009AA7ABA7BCA77C018D018FEF9FEFA0E065
:103ED000B0E0E822F9220A231B2389A59AA5ABA505
:103EE000BCA51D014424552489859A85AB85BC85D4
:103EF0008DA39EA3AFA3B8A75C016D018FEF9FEFC9
:103F0000A0E0B0E0A822B922CA22DB228DA19EA1A6
:103F1000AFA1B8A53D0188249924C801B701A60125
:103F200095010E94C02369A37AA38BA39CA3C80117
:103F3000B701A40193010E94C0237B018C01C2013F
:103F4000B101A60195010E94C0235B016C01C20171
:103F5000B101A40193010E94C0233B014C01EA0C72
:103F6000FB1C0C1D1D1D89A19AA1ABA1BCA19D012B
:103F7000442755272E0D3F1D401F511F2A153B0575
:103F80004C055D0540F480E090E0A1E0B0E0680EF3
:103F9000791E8A1E9B1ECA01AA27BB27860D971D64
:103FA000A81DB91D8D8F9E8FAF8FB8A3A901332790
:103FB000222789A19AA1ABA1BCA1A070B070280F43
:103FC000391F4A1F5B1F298F3A8F4B8F5C8FA98C3B
:103FD000BA8CCB8CDC8CED8CFE8C0F8D18A1FE0185
:103FE000719698E011929A95E9F7ED8AFE8A0F8B07
:103FF000188F2D813E814F8158856DA17EA18FA1A3
:1040000098A50E94C0233B014C012D853E854F851C
:10401000588969A57AA58BA59CA50E94C0232D89E6
:104020003E894F89588D260F371F481F591F260D6F
:10403000371D481D591D2D8B3E8B4F8B588F6D881A
:104040007E888F88988C2A2D3B2D4C2D5D2D662DDA
:10405000772D882D992DE2E1AC960C943124A0E1C6
:10406000B0E0E5E3F0E20C941524222E332E442E2A
:10407000552E662E772E882E992E002309F466C0C1
:1040800088E0FE01319611928A95E9F729833A83F7
:104090004B835C836D837E838F829887E0E2E01B95
:1040A0001E16CCF52D813E814F815885602F7727D4
:1040B00067FD7095DA01C901062E04C0B695A79573
:1040C000979587950A94D2F78D879E87AF87B88B8F
:1040D00004C0220F331F441F551FEA95D2F7898170
:1040E0009A81AB81BC8104C0B695A79597958795B9
:1040F0006A95D2F7282B392B4A2B5B2B29873A87D5
:104100004B875C8729843A844B845C846D847E84ED
:104110008F8498881BC01D861E861F86188A2E2FA6
:10412000332727FD3095309521953F4F8D819E8116
:10413000AF81B88504C0B695A795979587952A95C0
:10414000D2F789879A87AB87BC87DCCF222D332DA6
:10415000442D552D662D772D882D992DE2E1609601
:104160000C943124DC0101C06D9341505040E0F7C4
:104170000895A2E0B0E0EFEBF0E20C942524FE01FC
:10418000379661917191FA83E983AF018091930928
:10419000909194090E94D020E2E022960C94412450
:1041A000A4E1B0E0E6EDF0E20C941524CC24DD248B
:1041B00076011C017C8B6B8B2A01FC011782168215
:1041C000838181FD03C08FEF9FEF8AC2AA24BB24A5
:1041D00073C2A0FE58C28A8980538A30E8F4FA89F3
:1041E000F03341F42D85222329F4A3FC03C080E0A1
:1041F00091E06FC08AE0ED85E802C0011124FA89E0
:10420000F80FF053FD87F7FF02C02FE72D87A3FCBF
:104210004DC23D853E874AC2C50188709070A3FE9D
:1042200005C0ED85EE2311F4F1E0FD872A892836DB
:1042300024F525360CF05BC0233509F480C0243505
:104240008CF42B32C1F12C3234F42032C1F1233200
:1042500009F00EC23CC03A893D32B1F13E3209F05C
:1042600007C23AC08A89833609F449C084360CF003
:1042700081C0883509F0FCC11BC0EA89E03709F428
:10428000A3C0E13744F4EC3669F1EF3671F0E9365A
:1042900009F0EEC16FC0FA89F53709F49DC0F8370F
:1042A00039F0F33709F0E4C134C028E0298B94C019
:1042B00030E1398B91C080E190E0A82AB92AE0E290
:1042C000F0E0AE2ABF2AF2C120E830E00DC080E461
:1042D00090E0A82AB92AEAC1E8E0F0E0AE2ABF2AB5
:1042E0001D86E4C124E030E0A22AB32ADFC14FE3F7
:1042F000C42E3E8531503E8783E68A8B44C1F2014D
:10430000C080FE85F150FE8722E030E0420E531E51
:104310003AC1F201C080D180892B49F0FD856F2F11
:10432000772767FD7095C6010E94882319C0F601A2
:1043300001900020E9F73197EC19E98B12C0F201E6
:10434000C080D180892B49F0FD856F2F772767FDCD
:104350007095C6010E947D2303C0C6010E9474238C
:10436000898B22E030E0420E531E3E858989381B3E
:104370003E8709C1A2FE08C0F20180819181A2811D
:10438000B38124E030E009C0F20180819181AA2745
:1043900097FDA095BA2F22E030E0420E531E6C012B
:1043A0007D01B7FF0CC082E090E0A82AB92AF09402
:1043B000E094D094C094C11CD11CE11CF11CEFEB23
:1043C000FFEFAE22BF2221C020E430E0A22AB32AB0
:1043D00038E73A8B80E1898BA2FE08C0F201808128
:1043E0009181A281B38124E030E007C0F201808195
:1043F0009181AA27BB2722E030E0420E531E6C01B8
:104400007D018FEC9FEFA822B92287017601FE0182
:104410003196F88BEF87F9896F2E772488249924B9
:10442000C801B701A40193010E94F3236A3024F06C
:104430002A89620F615201C0605DEF85F88961933E
:10444000F88BEF87C801B701A40193010E94F32301
:1044500079018A01211531054105510509F7CC245F
:10446000DD247601CE010196CF84C81AC50182737E
:104470009070892B19F0FE85F150FE87A6FE09C0C9
:104480002989203111F482E001C081E03E85381B8A
:104490003E8738E0832E912C8A209B20A3FE1BC0F0
:1044A0008D85282F332727FD30958C2D992782174E
:1044B000930754F0E7EFFFEFAE22BF2228E0822EF1
:1044C000912C8A209B2007C0FD85FC19FD872E8535
:1044D0002F1B2E8703C03E853C193E87C50180787F
:1044E0009170892B69F48E8506C0B10180E290E05D
:1044F0000E949323812F182F11501816B4F31E8792
:10450000A1FE04C0B1018DE290E00BC0A4FE04C086
:10451000B1018BE290E005C0A5FE05C0B10180E2CB
:1045200090E00E949323A6FE10C0B10180E390E0CA
:104530000E9493238989803141F4B101EA898E2F49
:10454000992787FD90950E949323B0FE0DC08E851C
:1045500006C0B10180E390E00E949323812F182FC1
:1045600011501816B4F31E87892869F02D8506C0EE
:10457000B10180E390E00E949323212F122F11506C
:104580001216B4F31D8790E8692E712C6A207B20E7
:10459000A7FC0DC08E8506C0B10180E290E00E94AC
:1045A0009323812F182F11501816B4F31E87FA8900
:1045B000F33641F4B1018C2D992787FD90950E9427
:1045C000932346C02A892337B1F44601560119893D
:1045D00009C0F50181915F01B101992787FD90958F
:1045E0000E9493231150A8F76401F989CF0ED11CC2
:1045F0002FEF298B2DC03A89333519F00F85188993
:1046000020C046018601B98809C0F801C895802DEF
:10461000B10199270E9493230F5F1F4FBA94FFEFB8
:10462000BF1699F764012989C20ED11CF98B10C0FD
:10463000F80182918F01B101992787FD90950E9421
:104640009323CE0101960817190791F7188B0F874E
:104650006728B1F08E8506C0B10180E290E00E942B
:104660009323812F182F11501816B4F31E8708C0FA
:10467000B101FA898F2F992787FD90950E94932386
:10468000AA24BB2413C02A89253241F43AE0398B8D
:104690001E861D8681E0A82EB12C08C0B101EA89D2
:1046A0008E2F992787FD90950E9493232B893C8913
:1046B0002F5F3F4F3C8B2B8BF101838183FF05C024
:1046C000EB89FC89C895F02D03C0EB89FC89F0814A
:1046D000FA8B2A89222309F07CCDF101868197810A
:1046E000E2E164960C943124FC0105900020E9F786
:1046F000809590958E0F9F1F0895FC010590615045
:1047000070400110D8F7809590958E0F9F1F0895E7
:10471000FC016150704001900110D8F78095909590
:104720008E0F9F1F08950F931F93CF93DF938C01DC
:10473000EB018B81992781FF1BC082FF0DC02E8169
:104740003F818C819D812817390764F4E881F981C4
:104750000193F983E88306C0E885F985802F0995E0
:10476000892B31F48E819F8101969F838E8302C0B5
:104770000FEF1FEFC801DF91CF911F910F910895A7
:10478000629FD001739FF001829FE00DF11D649F35
:10479000E00DF11D929FF00D839FF00D749FF00DC1
:1047A000659FF00D9927729FB00DE11DF91F639F62
:1047B000B00DE11DF91FBD01CF0111240895AA1B01
:1047C000BB1B51E107C0AA1FBB1FA617B70710F0FC
:1047D000A61BB70B881F991F5A95A9F7809590952E
:1047E000BC01CD010895A1E21A2EAA1BBB1BFD013D
:1047F0000DC0AA1FBB1FEE1FFF1FA217B307E407C0
:10480000F50720F0A21BB30BE40BF50B661F771F17
:10481000881F991F1A9469F76095709580959095F7
:104820009B01AC01BD01CF0108952F923F924F92A1
:104830005F926F927F928F929F92AF92BF92CF9230
:10484000DF92EF92FF920F931F93CF93DF93CDB739
:10485000DEB7CA1BDB0B0FB6F894DEBF0FBECDBFB1
:1048600009942A88398848885F846E847D848C8482
:104870009B84AA84B984C884DF80EE80FD800C818B
:104880001B81AA81B981CE0FD11D0FB6F894DEBF6E
:0A4890000FBECDBFED010895FFCF6C
:10489A0049443A252D31642C205420402025376C78
:1048AA00752C205263763A252D35642C207143727B
:1048BA0063763A252D35642C2071527263763A2537
:1048CA002D35642C20506B745263763A252D35644D
:1048DA002C2044666C745263763A252D35640A009E
:1048EA0049443A252D31642C205420402025376C28
:1048FA00752C2050233A252D3164207C20252D311A
:10490A00642C20583A253264207C20252D32642CD0
:10491A002054636E743A252D34642C2050636E74CF
:10492A003A252D34642C2051636E743A252D346453
:10493A000A00547970653A20252D32642054533A7E
:10494A0020252D3764205372633A20252D316420A7
:10495A004473743A20252D316420736E6420666195
:10496A00696C2065727220252D3564207C20252DE6
:10497A0035640A004E6F64652025642068617320DF
:10498A00626F6F7465642E20506572696F643A2095
:10499A0025642E204F4E20706572696F643A202577
:1049AA006420506572696F6420436E743A202564EE
:1049BA0020506B7420526174653A2025640A004EB7
:1049CA006F646520256420526164696F2073746185
:1049DA00727465642E205374617274696E672070F4
:1049EA006572696F642074696D657220776974688D
:1049FA0020706572696F64206F662025640A0072F0
:104A0A00656369643A25642C206D736774797065EF
:104A1A00203A202564007479706520717565727971
:104A2A0000717565727920726573007061636B65D8
:104A3A0074000100FFB904E504B90401210404204B
:104A4A0001020100220100000002000000008C0B9C
:044A5A000000000058
:00000001FF
